:0601700068656C6C6F0075
:100003007590FFE4F5A01200EB7F057E001200CB94
:100013007F8012010F7BFF7A0179701200947FC0F9
:1000230012010FD285D284C2837F0A7E001200CBD5
:10003300D2832084FDC2857F057E001200CB85908C
:0F00430008AF081200527F057E001200CB80CF5D
:10005200EF75F00A84FEEF75F06484FDEE75F00A28
:100062008485F00BEF75F00A8485F009ED12012FFB
:100072007F027E001200CBE50B12012F7F027E0071
:100082001200CBE5092430FF1201327F027E00020A
:0200920000CBA1
:1000EB007F0112010F1200C77F0C12010F1200C704
:1000FB007F3812010F1200C77F0212010F7F147E8F
:04010B00000200CB23
:10010F00C2B78FA07F057E001200CB1200C5C2B60A
:10011F007F0A7E001200CBD2B67F147E000200CB86
:03012F002430FF7A
:10013200D2B78FA01200C5C2B67F0A7E001200CBD2
:09014200D2B67F147E000200CB4E
:100094008B098A0A890B7F0A7E001200CBAB09AA5E
:1000A4000AA90B12014BFF60171201327F0A7E006E
:1000B4001200CB7401250BF50BE4350AF50A80DD3B
:0100C4002219
:0600C500D2B67F147E009C
:1000CB00E4FDFCC3ED9FEC9E5015E4FBFA0BBB006B
:0F00DB00010AEB64FA4A70F50DBD00010C80E4D8
:0100EA0022F3
:0300000002016496
:0C016400787FE4F6D8FD75810B020003E3
:10014B00BB010689828A83E0225002E722BBFE02B2
:09015B00E32289828A83E49322E5
:00000001FF
