:0600FB0068656C6C6F00EB
:10009E00E4F5B0F5A012005A7F057E0012003A7FFB
:0F00AE008012007E7BFF7A0079FB12000380FE38
:10005A007F0112007E1200367F0C12007E120036DB
:10006A007F3812007E1200367F0212007E7F147ED5
:04007A000002003A46
:10007E00C2B58FA07F057E0012003A120034C2B4C2
:10008E007F0A7E0012003AD2B47F147E0002003A3C
:1000BD00D2B58FA0120034C2B47F0A7E0012003A6E
:0900CD00D2B47F147E0002003A57
:100003008B088A09890A7F0A7E0012003AAB08AA84
:1000130009A90A1200D6FF60171200BD7F0A7E00ED
:1000230012003A7401250AF50AE43509F50980DD61
:0100330022AA
:06003400D2B47F147E002F
:10003A00E4FDFCC3ED9FEC9E5015E4FBFA0BBB00FC
:0F004A00010AEB64FA4A70F50DBD00010C80E469
:010059002284
:030000000200EF0C
:0C00EF00787FE4F6D8FD75810A02009EBF
:1000D600BB010689828A83E0225002E722BBFE0228
:0900E600E32289828A83E493225B
:00000001FF
