:0600FB0068656C6C6F00EB
:10009E00E4F590F58012005A7F057E0012003A7F3B
:0F00AE008012007E7BFF7A0079FB12000380FE38
:10005A007F0112007E1200367F0C12007E120036DB
:10006A007F3812007E1200367F0212007E7F147ED5
:04007A000002003A46
:10007E00C2968F807F057E0012003A120034C2971E
:10008E007F0A7E0012003AD2977F147E0002003A59
:1000BD00D2968F80120034C2977F0A7E0012003ACA
:0900CD00D2977F147E0002003A74
:100003008B098A0A890B7F0A7E0012003AAB09AA80
:100013000AA90B1200D6FF60171200BD7F0A7E00EB
:1000230012003A7401250BF50BE4350AF50A80DD5D
:0100330022AA
:06003400D2977F147E004C
:10003A00E4FDFCC3ED9FEC9E5015E4FBFA0BBB00FC
:0F004A00010AEB64FA4A70F50DBD00010C80E469
:010059002284
:030000000200EF0C
:0C00EF00787FE4F6D8FD75810B02009EBE
:1000D600BB010689828A83E0225002E722BBFE0228
:0900E600E32289828A83E493225B
:00000001FF
