:0601DF0068656C6C6F0006
:1000CB00E4F5B07590FFF5A01201737F057E001269
:1000DB0001537F801201977BFF7A0179DF12011C9C
:1000EB007FC0120197D2B2D2B1C2B07F0A7E00128A
:1000FB000153D2B020B1FDC2B27F057E0012015375
:10010B00859008AF081200717F057E0012015380A5
:01011B00CF14
:10007100AB07AA067C007D6412001C8F827C007D88
:100081000AAF03AE0212001C8C098D0AAE02AF0347
:100091007C007D0A12001C7C007D0A12001C8C0B66
:1000A1008D0CAF82EF1201B77F027E00120153E582
:1000B1000C1201B77F027E00120153E50A2430FFC2
:0A00C1001201BA7F027E0002015313
:100173007F0112019712014F7F0C12019712014F59
:100183007F3812019712014F7F021201977F147E6D
:040193000002015312
:10019700C2B68FA07F057E0012015312014DC2B770
:1001A7007F0A7E00120153D2B77F147E00020153EB
:0301B7002430FFF2
:1001BA00D2B68FA012014DC2B77F0A7E0012015338
:0901CA00D2B77F147E000201533C
:10011C008B098A0A890B7F0A7E00120153AB09AA4C
:10012C000AA90B120003FF60171201BA7F0A7E00A6
:10013C001201537401250BF50BE4350AF50A80DD29
:01014C002290
:06014D00D2B77F147E0012
:10015300E4FDFCC3ED9FEC9E5015E4FBFA0BBB00E2
:0F016300010AEB64FA4A70F50DBD00010C80E44F
:01017200226A
:030000000201D327
:0C01D300787FE4F6D8FD75810C0200CBAB
:10000300BB010689828A83E0225002E722BBFE02FB
:09001300E32289828A83E493222E
:10001C00BC000BBE0029EF8DF084FFADF022E4CCC8
:10002C00F875F008EF2FFFEE33FEEC33FCEE9DEC91
:10003C00984005FCEE9DFE0FD5F0E9E4CEFD22EDD7
:10004C00F8F5F0EE8420D21CFEADF075F008EF2F21
:10005C00FFED33FD4007985006D5F0F222C398FD12
:05006C000FD5F0EA22AF
:00000001FF
