:0F01340068656C6C6F2E2E2E2E2E2E2E2E2E000A
:10006200E4F5A0F5907F05FE1200B11201167FF4AF
:100072007E011200B17FC87E001200B17BFF7A01BF
:07008200793412000380F540
:100089007F011200EA1200AD7F0C1200EA1200ADE6
:100099007F381200EA1200AD7F021200EA7F0A7E61
:0400A900000200B1A0
:1000EA00C2B48FA0D2B37F147E001200B1C2B37F14
:0600FA00147E000200B1BB
:10010000D2B48FA0D2B37F147E001200B1C2B37FED
:06011000147E000200B1A4
:100039008B088A09890A1200ADAB08AA09A90A1214
:1000490000D1FF60131201001200AD7401250AF5F9
:090059000AE43509F50980E122F1
:0F0116001200AD758920759850758DFDD28E221F
:100003008B0B8A0C890D1200ADAB0BAA0CA90D1238
:1000130000D160217FE87E031200B1AB0BAA0CA9CB
:100023000D1200D1FF1201257401250DF50DE435E4
:060033000CF50C80D42244
:0F0125008F997F147E001200B13099FDC299228C
:0400AD007F0A7E0048
:1000B100E4FDFCC3ED9FEC9E5015E4FBFA0BBB0085
:0F00C100010AEB64FA4A70F50DBD00010C80E4F2
:0100D000220D
:03000000020143B7
:0C014300787FE4F6D8FD75810E020062A2
:1000D100BB010689828A83E0225002E722BBFE022D
:0900E100E32289828A83E4932260
:00000001FF
