:1002F4007365742074696D65007365742068720099
:0D030400736574206D696E0074696D65008D
:0400030002170000E0
:03000B00020345A8
:0D034500C0E00518E51870020517D0E03281
:10000E00E4F508F509F50AF5A0758952F58DF58B1D
:10001E001202AC7F057E001202D47F801202937B07
:10002E00FF7A0279F41202517F327E001202D47FDF
:10003E00011202931202D07F801202937BFF7A028A
:10004E0079FD1202511202D0D28E309625858B0A7E
:10005E00E50AD394174009C28EE4F58DF58BD28E46
:10006E00E50A120282120311E5102430FF12031664
:10007E0080D8C28E7F011202931202D07F801202AC
:10008E00937BFF7A0379041202511202D0E4F58DAC
:10009E00F58BD28E30973B858B09E509D3943B4087
:1000AE0009C28EE4F58DF58BD28EE50975F00A84C2
:1000BE00F512E50975F00A8485F0137FC0120293DC
:1000CE00E5122430FF120316E5132430FF12031637
:1000DE0080C2C28E7F011202931202D07F80120262
:1000EE00937BFF7A03790C12025175A882758C05E9
:1000FE00D28CE50AC3941840030201BFE509C394EC
:10010E003C40030201B7E508C3943C40030201AF33
:10011E00C3E5189466E5176480948E507AE50875E9
:10012E00F0648485F00CE50C75F00A84F50DE50895
:10013E0075F00A8485F00EE50975F0648485F0117A
:10014E00E51175F00A84F512E50975F00A8485F05B
:10015E0013E50A75F0648485F00FE50F1202821222
:10016E000311E5102430FF1203167F3A120316E531
:10017E00122430FF120316E5132430FF1203167FEC
:10018E003A120316E50D2430FF120316E50E243045
:10019E00FF12031602011EE4F517F51805080201F9
:1001AE0014E4F508050902010AE4F509050A02013D
:0701BE0000E4F50A02010054
:1002AC007F011202931202D07F0C1202931202D021
:1002BC007F381202931202D07F021202937F147EB7
:0402CC00000202D456
:1002820075F00A84F50BE50A75F00A8485F0107F93
:01029200C0AB
:10029300C2B68FA0D2B77F017E001202D4C2B77F4D
:0902A300017E001202D4D2B72240
:05031100E50B2430FFA4
:10031600D2B68FA0D2B77F017E001202D4C2B77FB9
:06032600017E000202D47A
:100251008B148A1589167F0A7E001202D4AB14AA68
:1002610015A91612032CFF60171203167F0A7E00D0
:100271001202D474012516F516E43515F51580DD45
:01028100225A
:0402D0007F147E0019
:1002D400E4FDFCC3ED9FEC9E5015E4FBFA0BBB0060
:0F02E400010AEB64FA4A70F50DBD00010C80E4CD
:0102F30022E8
:030000000201C535
:0C01C500787FE4F6D8FD75811802020C6A
:10032C00BB010689828A83E0225002E722BBFE02CF
:09033C00E32289828A83E4932202
:1001D10002000EE493A3F8E493A34003F68001F236
:1001E10008DFF48029E493A3F85407240CC8C3332F
:1001F100C4540F4420C8834004F456800146F6DFFE
:10020100E4800B0102040810204080900003E47E8A
:10021100019360BCA3FF543F30E509541FFEE493F2
:10022100A360010ECF54C025E060A840B8E493A3B9
:10023100FAE493A3F8E493A3C8C582C8CAC583CAE4
:10024100F0A3C8C582C8CAC583CADFE9DEE780BE9C
:0100070000F8
:00000001FF
