:1000910068656C6C6F2064656172002020202061AE
:1000A1006363646E740020202020202064657463E3
:0C00B1007472006163636964656E740022
:0300030002016D8A
:03016D00C2823219
:10000600D282E4F5A01200E57F057E001200C57FCE
:10001600801201457BFF7A0079911201097F887E63
:10002600131200C57BFF7A00799C120109758801BD
:1000360075A8817F887E131200C57F801201457BDB
:10004600FF7A0079A71201097FA07E0F1200C52052
:1000560082FD7F01120145E4F50B7F851201457B88
:10006600FF7A0079B41201097FE87E031200C57F8A
:10007600011201457FE87E031200C5050BE50BC39F
:0B008600940740D6D2821200C180C453
:1000E5007F011201451200C17F0C1201451200C1AA
:1000F5007F381201451200C17F021201457F027E41
:04010500000200C52F
:0E014500C2B41200BDC2B37F027E000200C52C
:0E015300D2B41200BDC2B37F027E000200C50E
:100109008B088A09890AAB08AA09A90A12012CFFD6
:1001190060101201537401250AF50AE43509F5093D
:0301290080E4224D
:0800BD008FA0D2B37F027E0088
:1000C500E4FDFCC3ED9FEC9E5015E4FBFA0BBB0071
:0F00D500010AEB64FA4A70F50DBD00010C80E4DE
:0100E40022F9
:0300000002016199
:0C016100787FE4F6D8FD75810B020006E3
:10012C00BB010689828A83E0225002E722BBFE02D1
:09013C00E32289828A83E4932204
:00000001FF
