:0601E00068656C6C6F0005
:1000CF00E4F5A07590FF7F14FE12018D12012A7FB7
:1000DF00147E0012018D7F801201C21201897BFFF5
:1000EF007A0179E012015A7FC87E0012018DC2B0E9
:1000FF00120189D2B020B1FD7F017E0012018DD295
:10010F00B2120189859008120189C2B2120189AF1A
:0B011F0008120071120189D2B180D3D8
:10012A007F381201C27F017E0012018D7F0C1201FD
:10013A00C27F017E0012018D7F011201C27F017E02
:10014A000012018D7F021201C27F017E0002018D21
:10015A008B0A8A0B890C120189AB0AAA0BA90C1209
:10016A000003FF60171201B07F147E0012018D7424
:0D017A0001250CF50CE4350BF50B80DD22A2
:1001C200C2B6120187D2B7120189C2B7120189D20F
:0201D200B72252
:0301AD002430FFFC
:1001B000D2B6120187D2B7120189C2B7120189D211
:0201C000B72264
:060187008FA07F0A7E003C
:10018D00E4FDFCC3ED9FEC9E5015E4FBFA0BBB00A8
:0F019D00010AEB64FA4A70F50DBD00010C80E415
:0101AC002230
:04007100AB07AA0629
:100075007C007D0A12001C8C0C8D0DAE02AF037C3A
:10008500007D0A12001CAB07AA067C007D0A12003F
:100095001C8D82AE02AF037C007D0A12001C8E0A05
:1000A5008F0BAF82EF1201AD7F027E0012018DE54D
:1000B5000D1201AD7F027E0012018DE50B2430FF8C
:0A00C5001201B07F027E0002018DDF
:030000000201D426
:0C01D400787FE4F6D8FD75810D0200CFA5
:10000300BB010689828A83E0225002E722BBFE02FB
:09001300E32289828A83E493222E
:10001C00BC000BBE0029EF8DF084FFADF022E4CCC8
:10002C00F875F008EF2FFFEE33FEEC33FCEE9DEC91
:10003C00984005FCEE9DFE0FD5F0E9E4CEFD22EDD7
:10004C00F8F5F0EE8420D21CFEADF075F008EF2F21
:10005C00FFED33FD4007985006D5F0F222C398FD12
:05006C000FD5F0EA22AF
:00000001FF
