:0601DB0068656C6C6F000A
:10007100E4F5A07590FFF5B07F14FE12018812011E
:10008100257F147E001201887F801201BD12018438
:100091007BFF7A0179DB1201557FC87E001201884E
:1000A100C2B0120184D2B020B1FD7F017E001201E5
:1000B10088859008D2B2120184C2B2120184AF08BD
:0A00C1001200CB120184D2B180D6E8
:100125007F381201BD7F017E001201887F0C12010C
:10013500BD7F017E001201887F011201BD7F017E16
:10014500001201887F021201BD7F017E0002018835
:100155008B0A8A0B890C120184AB0AAA0BA90C1213
:100165000003FF60171201AB7F147E001201887433
:0D01750001250CF50CE4350BF50B80DD22A7
:1001BD00C2B6120182D2B7120184C2B7120184D223
:0201CD00B72257
:0301A8002430FF01
:1001AB00D2B6120182D2B7120184C2B7120184D225
:0201BB00B72269
:060182008FA07F0A7E0041
:10018800E4FDFCC3ED9FEC9E5015E4FBFA0BBB00AD
:0F019800010AEB64FA4A70F50DBD00010C80E41A
:0101A7002235
:0400CB00AB07AA06CF
:1000CF007C007D0A12001C8C0C8D0DAE02AF037CE0
:1000DF00007D0A12001CAB07AA067C007D0A1200E5
:1000EF001C8C0A8D0BAE02AF037C007D0A12001C24
:1000FF00EF1201A87F027E00120188E50B1201A802
:10010F007F027E00120188E50D2430FF1201AB7FC4
:06011F00027E00020188CF
:030000000201CF2B
:0C01CF00787FE4F6D8FD75810D02007108
:10000300BB010689828A83E0225002E722BBFE02FB
:09001300E32289828A83E493222E
:10001C00BC000BBE0029EF8DF084FFADF022E4CCC8
:10002C00F875F008EF2FFFEE33FEEC33FCEE9DEC91
:10003C00984005FCEE9DFE0FD5F0E9E4CEFD22EDD7
:10004C00F8F5F0EE8420D21CFEADF075F008EF2F21
:10005C00FFED33FD4007985006D5F0F222C398FD12
:05006C000FD5F0EA22AF
:00000001FF
