:1003C30054656D7020436F6E74726F6C6C65720050
:0E03D30043757272656E742054656D703A0049
:03000B000202DE10
:1002DE00C0E0C0F0C083C082C0D075D000C000C0E6
:1002EE0001C002C003C004C005C006C0071203E16E
:1002FE00D007D006D005D004D003D002D001D00054
:0B030E00D0D0D082D083D0F0D0E032FD
:03001B00020319C4
:10031900C0E0C0F0C083C082C0D075D000C000C0AA
:1003290001C002C003C004C005C006C0071203FA19
:10033900D007D006D005D004D003D002D001D00018
:0B034900D0D0D082D083D0F0D0E032C2
:10001E00C2A07590FFE4F5801203A27F8012041334
:10002E007BFF7A0379C312037C7FC01204137BFF1C
:10003E007A0379D312037CE4F508F509F514F51566
:10004E00F50C750D23758922F58CF58D75A88AD260
:10005E008ED28CD2B3D2B1D2B0120358C2B07F05B9
:10006E007E0012035CD2B020B1FDC2B37F057E00CC
:10007E0012035CAF907512008F137F057E00120382
:10008E005CD2B3C3E51294004022D3E5139413E57A
:10009E001294005017750E00750F1C1201F0C2A0BD
:1000AE007510037511E8750A00750B01D3E51394ED
:1000BE0013E51294004020D3E5139416E512940034
:1000CE005015750E00750F1D1201F0751003751188
:1000DE0084750A00750B64D3E5139416E51294002B
:1000EE004020D3E5139419E51294005015750E00B7
:1000FE00750F1E1201F07510027511BC750A01758F
:10010E000B2CD3E5139419E51294004020D3E5137C
:10011E00941CE51294005015750E00750F1F1201F8
:10012E00F07510017511F4750A01750BF4D3E51312
:10013E00941CE51294004020D3E513941FE512940D
:10014E00005015750E00750F201201F07510017517
:10015E00112C750A02750B58D3E513941FE51294F2
:10016E00004025D3E5139422E5129400501A750E23
:10017E0000750F211201F0751000751101750A033B
:10018E00750BE8E4F514F515D3E5139423E51294F5
:10019E00004045D2A0751000751101750A03750B4C
:1001AE00E8E4F514F515D3E513950DE512950C401D
:1001BE001385120C85130D050FE50FAE0E7002059B
:1001CE000E14801085120C85130DE50F150FAE0E53
:1001DE007002150EFF1201F47F207E0312035C02E3
:0201EE000061AE
:1003E1000509E50970020508C39511E50895104056
:0903F10007E4F508F509D2A02289
:1003FA000515E51570020514C3950BE514950A4019
:09040A0007E4F514F515C2A02267
:1003A2007F381204131203587F0C120413120358DD
:1003B2007F011204131203587F021204131203580E
:0103C2002218
:0B041300C2A6120354D2A71203582205
:0B041E00D2A6120354D2A712035822EA
:10037C008B168A178918AB16AA17A918120270FFC8
:10038C00601312041E12035874012518F518E43575
:06039C0017F51780E122B5
:0401F000AF0FAE0E91
:0401F4008E168F17BD
:1001F8007C007D641202898E188F1974302519F5D8
:1002080019E43518F5187FCD120413AF1912041E1E
:10021800AE16AF177C007D641202898C168D17AE5E
:1002280016AF177C007D0A1202898E188F19743058
:100238002519F519E43518F5187FCE120413AF19EE
:1002480012041EAE16AF177C007D0A1202898C18A4
:100258008D1974302519F519E43518F5187FCF1262
:070268000413AF1912041E7C
:01026F00226C
:080354008F80C2A77F017E002B
:10035C00E4FDFCC3ED9FEC9E5015E4FBFA0BBB00D7
:0F036C00010AEB64FB4A70F50DBD00010C80E443
:01037B00225F
:0300000002000EED
:0C000E00787FE4F6D8FD75811902001E11
:10027000BB010689828A83E0225002E722BBFE028C
:09028000E32289828A83E49322BF
:10028900BC000BBE0029EF8DF084FFADF022E4CC59
:10029900F875F008EF2FFFEE33FEEC33FCEE9DEC22
:1002A900984005FCEE9DFE0FD5F0E9E4CEFD22ED68
:1002B900F8F5F0EE8420D21CFEADF075F008EF2FB2
:1002C900FFED33FD4007985006D5F0F222C398FDA3
:0502D9000FD5F0EA2240
:00000001FF
